{
  "_format": "hh-sol-artifact-1",
  "contractName": "Staker",
  "sourceName": "contracts/Staker.sol",
  "abi": [
    {
      "inputs": [
        {
          "internalType": "address",
          "name": "exampleExternalContractAddress",
          "type": "address"
        }
      ],
      "stateMutability": "nonpayable",
      "type": "constructor"
    },
    {
      "anonymous": false,
      "inputs": [
        {
          "indexed": true,
          "internalType": "address",
          "name": "sender",
          "type": "address"
        },
        {
          "indexed": false,
          "internalType": "uint256",
          "name": "amount",
          "type": "uint256"
        }
      ],
      "name": "Stake",
      "type": "event"
    },
    {
      "inputs": [],
      "name": "_openForWithdraw",
      "outputs": [
        {
          "internalType": "bool",
          "name": "",
          "type": "bool"
        }
      ],
      "stateMutability": "view",
      "type": "function"
    },
    {
      "inputs": [],
      "name": "amountExecuted",
      "outputs": [
        {
          "internalType": "uint256",
          "name": "",
          "type": "uint256"
        }
      ],
      "stateMutability": "view",
      "type": "function"
    },
    {
      "inputs": [
        {
          "internalType": "address",
          "name": "",
          "type": "address"
        }
      ],
      "name": "balances",
      "outputs": [
        {
          "internalType": "uint256",
          "name": "",
          "type": "uint256"
        }
      ],
      "stateMutability": "view",
      "type": "function"
    },
    {
      "inputs": [],
      "name": "deadline",
      "outputs": [
        {
          "internalType": "uint256",
          "name": "",
          "type": "uint256"
        }
      ],
      "stateMutability": "view",
      "type": "function"
    },
    {
      "inputs": [],
      "name": "exampleExternalContract",
      "outputs": [
        {
          "internalType": "contract ExampleExternalContract",
          "name": "",
          "type": "address"
        }
      ],
      "stateMutability": "view",
      "type": "function"
    },
    {
      "inputs": [],
      "name": "execute",
      "outputs": [],
      "stateMutability": "nonpayable",
      "type": "function"
    },
    {
      "inputs": [
        {
          "internalType": "address",
          "name": "",
          "type": "address"
        }
      ],
      "name": "executions",
      "outputs": [
        {
          "internalType": "uint8",
          "name": "",
          "type": "uint8"
        }
      ],
      "stateMutability": "view",
      "type": "function"
    },
    {
      "inputs": [],
      "name": "stake",
      "outputs": [],
      "stateMutability": "payable",
      "type": "function"
    },
    {
      "inputs": [],
      "name": "threshold",
      "outputs": [
        {
          "internalType": "uint256",
          "name": "",
          "type": "uint256"
        }
      ],
      "stateMutability": "view",
      "type": "function"
    },
    {
      "inputs": [],
      "name": "timeLeft",
      "outputs": [
        {
          "internalType": "uint256",
          "name": "timeRemaining",
          "type": "uint256"
        }
      ],
      "stateMutability": "view",
      "type": "function"
    },
    {
      "inputs": [
        {
          "internalType": "address payable",
          "name": "_address",
          "type": "address"
        }
      ],
      "name": "withdraw",
      "outputs": [],
      "stateMutability": "nonpayable",
      "type": "function"
    },
    {
      "stateMutability": "payable",
      "type": "receive"
    }
  ],
  "bytecode": "0x60806040526002805460ff191690556000600355610020426203f4806100a1565b60045534801561002f57600080fd5b506040516108fb3803806108fb83398101604081905261004e91610073565b600580546001600160a01b0319166001600160a01b03929092169190911790556100c5565b600060208284031215610084578081fd5b81516001600160a01b038116811461009a578182fd5b9392505050565b600082198211156100c057634e487b7160e01b81526011600452602481fd5b500190565b610827806100d46000396000f3fe6080604052600436106100a05760003560e01c806344196cc21161006457806344196cc21461022357806350cfe3c71461024d57806351cff8d91461028f57806361461954146102af5780639f75f227146102c4578063a025432b146102fc57600080fd5b80631300a6d11461019257806327e235e3146101ba57806329dcb0cf146101e75780633a4b66f1146101fd57806342cde4e81461020757600080fd5b3661018d5760408051600481526024810182526020810180516001600160e01b0316633a4b66f160e01b17905290513491600091309184916100e2919061075e565b60006040518083038185875af1925050503d806000811461011f576040519150601f19603f3d011682016040523d82523d6000602084013e610124565b606091505b50509050806101895760405162461bcd60e51b815260206004820152602660248201527f436f6e74726163742072656369657665642065746820616e64206469646e2774604482015265207374616b6560d01b60648201526084015b60405180910390fd5b5050005b600080fd5b34801561019e57600080fd5b506101a7610312565b6040519081526020015b60405180910390f35b3480156101c657600080fd5b506101a76101d536600461073b565b60006020819052908152604090205481565b3480156101f357600080fd5b506101a760045481565b610205610336565b005b34801561021357600080fd5b506101a7670de0b6b3a764000081565b34801561022f57600080fd5b5060025461023d9060ff1681565b60405190151581526020016101b1565b34801561025957600080fd5b5061027d61026836600461073b565b60016020526000908152604090205460ff1681565b60405160ff90911681526020016101b1565b34801561029b57600080fd5b506102056102aa36600461073b565b6104bc565b3480156102bb57600080fd5b506102056105c6565b3480156102d057600080fd5b506005546102e4906001600160a01b031681565b6040516001600160a01b0390911681526020016101b1565b34801561030857600080fd5b506101a760035481565b600060045442106103235750600090565b4260045461033191906107af565b905090565b3360009081526020819052604081208054349290610355908490610797565b909155505060405134815233907febedb8b3c678666e7f36970bc8f57abf6d8fa2e828c0da91ea5b75bf68ed101a9060200160405180910390a2670de0b6b3a76400004710156103ad576002805460ff191660011790555b670de0b6b3a764000047101580156103ca57506103c8610312565b155b156104ba5760055460408051600481526024810182526020810180516001600160e01b031663522e117760e01b17905290516000926001600160a01b0316914791610415919061075e565b60006040518083038185875af1925050503d8060008114610452576040519150601f19603f3d011682016040523d82523d6000602084013e610457565b606091505b50509050806104b85760405162461bcd60e51b815260206004820152602760248201527f6578616d706c6545787465726e616c436f6e74726163742e636f6d706c6574656044820152660819985a5b195960ca1b6064820152608401610180565b505b565b600160025460ff1615156001146105155760405162461bcd60e51b815260206004820152601b60248201527f4e6f74206f70656e20666f72207769746864726177616c2079657400000000006044820152606401610180565b6001600160a01b038216600081815260208190526040808220805490839055905190929083908381818185875af1925050503d8060008114610573576040519150601f19603f3d011682016040523d82523d6000602084013e610578565b606091505b50509050806105c05760405162461bcd60e51b81526020600482015260146024820152732330b4b632b2103a379039b2b7321022ba3432b960611b6044820152606401610180565b50505050565b600160006105d2610312565b9050811561061b5780156106165760405162461bcd60e51b815260206004820152600b60248201526a139bdd081c995858da195960aa1b6044820152606401610180565b61066b565b6000811161066b5760405162461bcd60e51b815260206004820152601860248201527f446561646c696e6520616c7265616479207265616368656400000000000000006044820152606401610180565b6001600354106106bd5760405162461bcd60e51b815260206004820152601f60248201527f457865637574656420686173206265656e2063616c6c6564206265666f7265006044820152606401610180565b6005546040805163522e117760e01b8152905147926001600160a01b03169163522e117791849160048082019260009290919082900301818588803b15801561070557600080fd5b505af1158015610719573d6000803e3d6000fd5b50505050506001600360008282546107319190610797565b9091555050505050565b60006020828403121561074c578081fd5b8135610757816107dc565b9392505050565b60008251815b8181101561077e5760208186018101518583015201610764565b8181111561078c5782828501525b509190910192915050565b600082198211156107aa576107aa6107c6565b500190565b6000828210156107c1576107c16107c6565b500390565b634e487b7160e01b600052601160045260246000fd5b6001600160a01b03811681146104b857600080fdfea26469706673582212203dfcb5e47b42a422ec222741f4f039d9f35bcae29a82d141f10692b22e091d8d64736f6c63430008040033",
  "linkReferences": {},
  "deployedLinkReferences": {}
}